{
  "contractName": "Exchange",
  "abi": [
    {
      "inputs": [
        {
          "internalType": "address",
          "name": "_transactionFeeAccount",
          "type": "address"
        },
        {
          "internalType": "uint256",
          "name": "_transactionFeePercent",
          "type": "uint256"
        }
      ],
      "stateMutability": "nonpayable",
      "type": "constructor"
    },
    {
      "anonymous": false,
      "inputs": [
        {
          "indexed": false,
          "internalType": "address",
          "name": "_token",
          "type": "address"
        },
        {
          "indexed": false,
          "internalType": "address",
          "name": "_user",
          "type": "address"
        },
        {
          "indexed": false,
          "internalType": "uint256",
          "name": "_amount",
          "type": "uint256"
        },
        {
          "indexed": false,
          "internalType": "uint256",
          "name": "_balance",
          "type": "uint256"
        }
      ],
      "name": "Deposit",
      "type": "event"
    },
    {
      "anonymous": false,
      "inputs": [
        {
          "indexed": false,
          "internalType": "uint256",
          "name": "_id",
          "type": "uint256"
        },
        {
          "indexed": false,
          "internalType": "uint256",
          "name": "_timeCreated",
          "type": "uint256"
        },
        {
          "indexed": false,
          "internalType": "uint256",
          "name": "_amountGive",
          "type": "uint256"
        },
        {
          "indexed": false,
          "internalType": "uint256",
          "name": "_amountGet",
          "type": "uint256"
        },
        {
          "indexed": false,
          "internalType": "address",
          "name": "_tokenGive",
          "type": "address"
        },
        {
          "indexed": false,
          "internalType": "address",
          "name": "_tokenGet",
          "type": "address"
        },
        {
          "indexed": false,
          "internalType": "address",
          "name": "_creator",
          "type": "address"
        }
      ],
      "name": "Order",
      "type": "event"
    },
    {
      "anonymous": false,
      "inputs": [
        {
          "indexed": false,
          "internalType": "uint256",
          "name": "_id",
          "type": "uint256"
        },
        {
          "indexed": false,
          "internalType": "uint256",
          "name": "_amountGive",
          "type": "uint256"
        },
        {
          "indexed": false,
          "internalType": "uint256",
          "name": "_amountGet",
          "type": "uint256"
        },
        {
          "indexed": false,
          "internalType": "uint256",
          "name": "_timeCancelled",
          "type": "uint256"
        },
        {
          "indexed": false,
          "internalType": "address",
          "name": "_tokenGive",
          "type": "address"
        },
        {
          "indexed": false,
          "internalType": "address",
          "name": "_tokenGet",
          "type": "address"
        },
        {
          "indexed": false,
          "internalType": "address",
          "name": "_creator",
          "type": "address"
        }
      ],
      "name": "OrderCancelled",
      "type": "event"
    },
    {
      "anonymous": false,
      "inputs": [
        {
          "indexed": false,
          "internalType": "uint256",
          "name": "_id",
          "type": "uint256"
        },
        {
          "indexed": false,
          "internalType": "uint256",
          "name": "_amountGive",
          "type": "uint256"
        },
        {
          "indexed": false,
          "internalType": "uint256",
          "name": "_amountGet",
          "type": "uint256"
        },
        {
          "indexed": false,
          "internalType": "uint256",
          "name": "_timeTraded",
          "type": "uint256"
        },
        {
          "indexed": false,
          "internalType": "address",
          "name": "_tokenGive",
          "type": "address"
        },
        {
          "indexed": false,
          "internalType": "address",
          "name": "_tokenGet",
          "type": "address"
        },
        {
          "indexed": false,
          "internalType": "address",
          "name": "_creator",
          "type": "address"
        },
        {
          "indexed": false,
          "internalType": "address",
          "name": "_filler",
          "type": "address"
        }
      ],
      "name": "Trade",
      "type": "event"
    },
    {
      "anonymous": false,
      "inputs": [
        {
          "indexed": false,
          "internalType": "address",
          "name": "_token",
          "type": "address"
        },
        {
          "indexed": false,
          "internalType": "address",
          "name": "_user",
          "type": "address"
        },
        {
          "indexed": false,
          "internalType": "uint256",
          "name": "_amount",
          "type": "uint256"
        },
        {
          "indexed": false,
          "internalType": "uint256",
          "name": "_balance",
          "type": "uint256"
        }
      ],
      "name": "Withdraw",
      "type": "event"
    },
    {
      "stateMutability": "nonpayable",
      "type": "fallback"
    },
    {
      "inputs": [
        {
          "internalType": "uint256",
          "name": "",
          "type": "uint256"
        }
      ],
      "name": "cancelledOrders",
      "outputs": [
        {
          "internalType": "bool",
          "name": "",
          "type": "bool"
        }
      ],
      "stateMutability": "view",
      "type": "function",
      "constant": true
    },
    {
      "inputs": [],
      "name": "orderCount",
      "outputs": [
        {
          "internalType": "uint256",
          "name": "",
          "type": "uint256"
        }
      ],
      "stateMutability": "view",
      "type": "function",
      "constant": true
    },
    {
      "inputs": [
        {
          "internalType": "uint256",
          "name": "",
          "type": "uint256"
        }
      ],
      "name": "orders",
      "outputs": [
        {
          "internalType": "uint256",
          "name": "_id",
          "type": "uint256"
        },
        {
          "internalType": "uint256",
          "name": "_timeCreated",
          "type": "uint256"
        },
        {
          "internalType": "uint256",
          "name": "_amountGive",
          "type": "uint256"
        },
        {
          "internalType": "uint256",
          "name": "_amountGet",
          "type": "uint256"
        },
        {
          "internalType": "address",
          "name": "_tokenGive",
          "type": "address"
        },
        {
          "internalType": "address",
          "name": "_tokenGet",
          "type": "address"
        },
        {
          "internalType": "address",
          "name": "_creator",
          "type": "address"
        }
      ],
      "stateMutability": "view",
      "type": "function",
      "constant": true
    },
    {
      "inputs": [
        {
          "internalType": "uint256",
          "name": "",
          "type": "uint256"
        }
      ],
      "name": "ordersFilled",
      "outputs": [
        {
          "internalType": "bool",
          "name": "",
          "type": "bool"
        }
      ],
      "stateMutability": "view",
      "type": "function",
      "constant": true
    },
    {
      "inputs": [
        {
          "internalType": "address",
          "name": "",
          "type": "address"
        },
        {
          "internalType": "address",
          "name": "",
          "type": "address"
        }
      ],
      "name": "tokens",
      "outputs": [
        {
          "internalType": "uint256",
          "name": "",
          "type": "uint256"
        }
      ],
      "stateMutability": "view",
      "type": "function",
      "constant": true
    },
    {
      "inputs": [],
      "name": "transactionFeeAccount",
      "outputs": [
        {
          "internalType": "address",
          "name": "",
          "type": "address"
        }
      ],
      "stateMutability": "view",
      "type": "function",
      "constant": true
    },
    {
      "inputs": [],
      "name": "transactionFeePercent",
      "outputs": [
        {
          "internalType": "uint256",
          "name": "",
          "type": "uint256"
        }
      ],
      "stateMutability": "view",
      "type": "function",
      "constant": true
    },
    {
      "inputs": [
        {
          "internalType": "address",
          "name": "_token",
          "type": "address"
        },
        {
          "internalType": "uint256",
          "name": "_amount",
          "type": "uint256"
        }
      ],
      "name": "depositToken",
      "outputs": [],
      "stateMutability": "nonpayable",
      "type": "function"
    },
    {
      "inputs": [],
      "name": "depositEther",
      "outputs": [],
      "stateMutability": "payable",
      "type": "function",
      "payable": true
    },
    {
      "inputs": [
        {
          "internalType": "uint256",
          "name": "_amount",
          "type": "uint256"
        }
      ],
      "name": "withdrawEther",
      "outputs": [],
      "stateMutability": "nonpayable",
      "type": "function"
    },
    {
      "inputs": [
        {
          "internalType": "address",
          "name": "_token",
          "type": "address"
        },
        {
          "internalType": "uint256",
          "name": "_amount",
          "type": "uint256"
        }
      ],
      "name": "withdrawTokens",
      "outputs": [],
      "stateMutability": "nonpayable",
      "type": "function"
    },
    {
      "inputs": [
        {
          "internalType": "address",
          "name": "_token",
          "type": "address"
        },
        {
          "internalType": "address",
          "name": "_user",
          "type": "address"
        }
      ],
      "name": "balanceOf",
      "outputs": [
        {
          "internalType": "uint256",
          "name": "",
          "type": "uint256"
        }
      ],
      "stateMutability": "view",
      "type": "function",
      "constant": true
    },
    {
      "inputs": [
        {
          "internalType": "uint256",
          "name": "_amountGive",
          "type": "uint256"
        },
        {
          "internalType": "uint256",
          "name": "_amountGet",
          "type": "uint256"
        },
        {
          "internalType": "address",
          "name": "_tokenGive",
          "type": "address"
        },
        {
          "internalType": "address",
          "name": "_tokenGet",
          "type": "address"
        }
      ],
      "name": "createOrder",
      "outputs": [],
      "stateMutability": "nonpayable",
      "type": "function"
    },
    {
      "inputs": [
        {
          "internalType": "uint256",
          "name": "_id",
          "type": "uint256"
        }
      ],
      "name": "cancelOrders",
      "outputs": [],
      "stateMutability": "nonpayable",
      "type": "function"
    },
    {
      "inputs": [
        {
          "internalType": "uint256",
          "name": "_id",
          "type": "uint256"
        }
      ],
      "name": "fillOrder",
      "outputs": [],
      "stateMutability": "nonpayable",
      "type": "function"
    }
  ],
  "bytecode": "0x60806040523480156200001157600080fd5b5060405162001d3e38038062001d3e83398181016040528101906200003791906200012b565b816000806101000a81548173ffffffffffffffffffffffffffffffffffffffff021916908373ffffffffffffffffffffffffffffffffffffffff16021790555080600181905550505062000172565b600080fd5b600073ffffffffffffffffffffffffffffffffffffffff82169050919050565b6000620000b8826200008b565b9050919050565b620000ca81620000ab565b8114620000d657600080fd5b50565b600081519050620000ea81620000bf565b92915050565b6000819050919050565b6200010581620000f0565b81146200011157600080fd5b50565b6000815190506200012581620000fa565b92915050565b6000806040838503121562000145576200014462000086565b5b60006200015585828601620000d9565b9250506020620001688582860162000114565b9150509250929050565b611bbc80620001826000396000f3fe6080604052600436106100ec5760003560e01c8063508493bc1161008a578063a85c38ef11610059578063a85c38ef146102ce578063bc15e60114610311578063e5d6b5541461034e578063f7888aec14610377576100ed565b8063508493bc1461023557806358b91f0d1461027257806367b830ad1461029b57806398ea5fca146102c4576100ed565b806321168620116100c6578063211686201461017b5780632453ffa8146101b8578063338b5dea146101e35780633bed33ce1461020c576100ed565b806306b091f9146100fc5780630c8f5e00146101255780631271e26014610150576100ed565b5b3480156100f957600080fd5b50005b34801561010857600080fd5b50610123600480360381019061011e919061168a565b6103b4565b005b34801561013157600080fd5b5061013a610680565b60405161014791906116d9565b60405180910390f35b34801561015c57600080fd5b50610165610686565b6040516101729190611703565b60405180910390f35b34801561018757600080fd5b506101a2600480360381019061019d919061171e565b6106aa565b6040516101af9190611766565b60405180910390f35b3480156101c457600080fd5b506101cd6106ca565b6040516101da91906116d9565b60405180910390f35b3480156101ef57600080fd5b5061020a6004803603810190610205919061168a565b6106d0565b005b34801561021857600080fd5b50610233600480360381019061022e919061171e565b6108e3565b005b34801561024157600080fd5b5061025c60048036038101906102579190611781565b610b03565b60405161026991906116d9565b60405180910390f35b34801561027e57600080fd5b50610299600480360381019061029491906117c1565b610b28565b005b3480156102a757600080fd5b506102c260048036038101906102bd919061171e565b610d14565b005b6102cc610e78565b005b3480156102da57600080fd5b506102f560048036038101906102f0919061171e565b610fc7565b6040516103089796959493929190611828565b60405180910390f35b34801561031d57600080fd5b506103386004803603810190610333919061171e565b611069565b6040516103459190611766565b60405180910390f35b34801561035a57600080fd5b506103756004803603810190610370919061171e565b611089565b005b34801561038357600080fd5b5061039e60048036038101906103999190611781565b6111f3565b6040516103ab91906116d9565b60405180910390f35b600073ffffffffffffffffffffffffffffffffffffffff163373ffffffffffffffffffffffffffffffffffffffff1614156103ee57600080fd5b600073ffffffffffffffffffffffffffffffffffffffff168273ffffffffffffffffffffffffffffffffffffffff16141561042857600080fd5b600360008373ffffffffffffffffffffffffffffffffffffffff1673ffffffffffffffffffffffffffffffffffffffff16815260200190815260200160002060003373ffffffffffffffffffffffffffffffffffffffff1673ffffffffffffffffffffffffffffffffffffffff168152602001908152602001600020548111156104b157600080fd5b80600360008473ffffffffffffffffffffffffffffffffffffffff1673ffffffffffffffffffffffffffffffffffffffff16815260200190815260200160002060003373ffffffffffffffffffffffffffffffffffffffff1673ffffffffffffffffffffffffffffffffffffffff168152602001908152602001600020600082825461053d91906118c6565b925050819055508173ffffffffffffffffffffffffffffffffffffffff1663a9059cbb33836040518363ffffffff1660e01b815260040161057f9291906118fa565b6020604051808303816000875af115801561059e573d6000803e3d6000fd5b505050506040513d601f19601f820116820180604052508101906105c2919061194f565b507ff341246adaac6f497bc2a656f546ab9e182111d630394f0c57c710a59a2cb567823383600360008773ffffffffffffffffffffffffffffffffffffffff1673ffffffffffffffffffffffffffffffffffffffff16815260200190815260200160002060003373ffffffffffffffffffffffffffffffffffffffff1673ffffffffffffffffffffffffffffffffffffffff16815260200190815260200160002054604051610674949392919061197c565b60405180910390a15050565b60015481565b60008054906101000a900473ffffffffffffffffffffffffffffffffffffffff1681565b60066020528060005260406000206000915054906101000a900460ff1681565b60025481565b600073ffffffffffffffffffffffffffffffffffffffff168273ffffffffffffffffffffffffffffffffffffffff16141561070a57600080fd5b8173ffffffffffffffffffffffffffffffffffffffff166323b872dd3330846040518463ffffffff1660e01b8152600401610747939291906119c1565b6020604051808303816000875af1158015610766573d6000803e3d6000fd5b505050506040513d601f19601f8201168201806040525081019061078a919061194f565b61079357600080fd5b80600360008473ffffffffffffffffffffffffffffffffffffffff1673ffffffffffffffffffffffffffffffffffffffff16815260200190815260200160002060003373ffffffffffffffffffffffffffffffffffffffff1673ffffffffffffffffffffffffffffffffffffffff168152602001908152602001600020600082825461081f91906119f8565b925050819055507fdcbc1c05240f31ff3ad067ef1ee35ce4997762752e3a095284754544f4c709d7823383600360008773ffffffffffffffffffffffffffffffffffffffff1673ffffffffffffffffffffffffffffffffffffffff16815260200190815260200160002060003373ffffffffffffffffffffffffffffffffffffffff1673ffffffffffffffffffffffffffffffffffffffff168152602001908152602001600020546040516108d7949392919061197c565b60405180910390a15050565b600360008073ffffffffffffffffffffffffffffffffffffffff1673ffffffffffffffffffffffffffffffffffffffff16815260200190815260200160002060003373ffffffffffffffffffffffffffffffffffffffff1673ffffffffffffffffffffffffffffffffffffffff1681526020019081526020016000205481111561096c57600080fd5b80600360008073ffffffffffffffffffffffffffffffffffffffff1673ffffffffffffffffffffffffffffffffffffffff16815260200190815260200160002060003373ffffffffffffffffffffffffffffffffffffffff1673ffffffffffffffffffffffffffffffffffffffff16815260200190815260200160002060008282546109f891906118c6565b925050819055503373ffffffffffffffffffffffffffffffffffffffff166108fc829081150290604051600060405180830381858888f19350505050158015610a45573d6000803e3d6000fd5b507ff341246adaac6f497bc2a656f546ab9e182111d630394f0c57c710a59a2cb56760003383600360008073ffffffffffffffffffffffffffffffffffffffff1673ffffffffffffffffffffffffffffffffffffffff16815260200190815260200160002060003373ffffffffffffffffffffffffffffffffffffffff1673ffffffffffffffffffffffffffffffffffffffff16815260200190815260200160002054604051610af8949392919061197c565b60405180910390a150565b6003602052816000526040600020602052806000526040600020600091509150505481565b6001600254610b3791906119f8565b6002819055506040518060e0016040528060025481526020014281526020018581526020018481526020018373ffffffffffffffffffffffffffffffffffffffff1681526020018273ffffffffffffffffffffffffffffffffffffffff1681526020013373ffffffffffffffffffffffffffffffffffffffff168152506004600060025481526020019081526020016000206000820151816000015560208201518160010155604082015181600201556060820151816003015560808201518160040160006101000a81548173ffffffffffffffffffffffffffffffffffffffff021916908373ffffffffffffffffffffffffffffffffffffffff16021790555060a08201518160050160006101000a81548173ffffffffffffffffffffffffffffffffffffffff021916908373ffffffffffffffffffffffffffffffffffffffff16021790555060c08201518160060160006101000a81548173ffffffffffffffffffffffffffffffffffffffff021916908373ffffffffffffffffffffffffffffffffffffffff1602179055509050507fa6ab05fe80d98573eedfcbf5efe580bd221b9b43f8b8a6e4359bc8f5b8d8163b600254428686868633604051610d069796959493929190611828565b60405180910390a150505050565b600060046000838152602001908152602001600020905081816000015414610d3b57600080fd5b6005600083815260200190815260200160002060009054906101000a900460ff1615610d6657600080fd5b6006600083815260200190815260200160002060009054906101000a900460ff1615610d9157600080fd5b3373ffffffffffffffffffffffffffffffffffffffff168160060160009054906101000a900473ffffffffffffffffffffffffffffffffffffffff1673ffffffffffffffffffffffffffffffffffffffff161415610dee57600080fd5b610e7481600001548260060160009054906101000a900473ffffffffffffffffffffffffffffffffffffffff168360050160009054906101000a900473ffffffffffffffffffffffffffffffffffffffff168460040160009054906101000a900473ffffffffffffffffffffffffffffffffffffffff168560030154866002015461127a565b5050565b34600360008073ffffffffffffffffffffffffffffffffffffffff1673ffffffffffffffffffffffffffffffffffffffff16815260200190815260200160002060003373ffffffffffffffffffffffffffffffffffffffff1673ffffffffffffffffffffffffffffffffffffffff1681526020019081526020016000206000828254610f0491906119f8565b925050819055507fdcbc1c05240f31ff3ad067ef1ee35ce4997762752e3a095284754544f4c709d760003334600360008073ffffffffffffffffffffffffffffffffffffffff1673ffffffffffffffffffffffffffffffffffffffff16815260200190815260200160002060003373ffffffffffffffffffffffffffffffffffffffff1673ffffffffffffffffffffffffffffffffffffffff16815260200190815260200160002054604051610fbd949392919061197c565b60405180910390a1565b60046020528060005260406000206000915090508060000154908060010154908060020154908060030154908060040160009054906101000a900473ffffffffffffffffffffffffffffffffffffffff16908060050160009054906101000a900473ffffffffffffffffffffffffffffffffffffffff16908060060160009054906101000a900473ffffffffffffffffffffffffffffffffffffffff16905087565b60056020528060005260406000206000915054906101000a900460ff1681565b6000600460008381526020019081526020016000209050818160000154146110b057600080fd5b3373ffffffffffffffffffffffffffffffffffffffff168160060160009054906101000a900473ffffffffffffffffffffffffffffffffffffffff1673ffffffffffffffffffffffffffffffffffffffff161461110c57600080fd5b60016005600084815260200190815260200160002060006101000a81548160ff0219169083151502179055507fb1627d743088e748612ff09cba004c6ca778a9ce9be59c13f86c91a948f538388282600201548360030154428560040160009054906101000a900473ffffffffffffffffffffffffffffffffffffffff168660050160009054906101000a900473ffffffffffffffffffffffffffffffffffffffff168760060160009054906101000a900473ffffffffffffffffffffffffffffffffffffffff166040516111e79796959493929190611828565b60405180910390a15050565b6000600360008473ffffffffffffffffffffffffffffffffffffffff1673ffffffffffffffffffffffffffffffffffffffff16815260200190815260200160002060008373ffffffffffffffffffffffffffffffffffffffff1673ffffffffffffffffffffffffffffffffffffffff16815260200190815260200160002054905092915050565b600060646001548361128c9190611a4e565b6112969190611ad7565b905081600360008673ffffffffffffffffffffffffffffffffffffffff1673ffffffffffffffffffffffffffffffffffffffff16815260200190815260200160002060008873ffffffffffffffffffffffffffffffffffffffff1673ffffffffffffffffffffffffffffffffffffffff168152602001908152602001600020600082825461132491906118c6565b9250508190555081600360008673ffffffffffffffffffffffffffffffffffffffff1673ffffffffffffffffffffffffffffffffffffffff16815260200190815260200160002060003373ffffffffffffffffffffffffffffffffffffffff1673ffffffffffffffffffffffffffffffffffffffff16815260200190815260200160002060008282546113b791906119f8565b9250508190555082600360008773ffffffffffffffffffffffffffffffffffffffff1673ffffffffffffffffffffffffffffffffffffffff16815260200190815260200160002060008873ffffffffffffffffffffffffffffffffffffffff1673ffffffffffffffffffffffffffffffffffffffff168152602001908152602001600020600082825461144a91906119f8565b92505081905550808361145d91906119f8565b600360008773ffffffffffffffffffffffffffffffffffffffff1673ffffffffffffffffffffffffffffffffffffffff16815260200190815260200160002060003373ffffffffffffffffffffffffffffffffffffffff1673ffffffffffffffffffffffffffffffffffffffff16815260200190815260200160002060008282546114e891906118c6565b9250508190555080600360008773ffffffffffffffffffffffffffffffffffffffff1673ffffffffffffffffffffffffffffffffffffffff16815260200190815260200160002060008060009054906101000a900473ffffffffffffffffffffffffffffffffffffffff1673ffffffffffffffffffffffffffffffffffffffff1673ffffffffffffffffffffffffffffffffffffffff168152602001908152602001600020600082825461159c91906119f8565b925050819055507f81f82ea6fc197fd384aa96536dc00cde0003c09cd8bfb977c225dc63112957f987838542888a8c336040516115e0989796959493929190611b08565b60405180910390a150505050505050565b600080fd5b600073ffffffffffffffffffffffffffffffffffffffff82169050919050565b6000611621826115f6565b9050919050565b61163181611616565b811461163c57600080fd5b50565b60008135905061164e81611628565b92915050565b6000819050919050565b61166781611654565b811461167257600080fd5b50565b6000813590506116848161165e565b92915050565b600080604083850312156116a1576116a06115f1565b5b60006116af8582860161163f565b92505060206116c085828601611675565b9150509250929050565b6116d381611654565b82525050565b60006020820190506116ee60008301846116ca565b92915050565b6116fd81611616565b82525050565b600060208201905061171860008301846116f4565b92915050565b600060208284031215611734576117336115f1565b5b600061174284828501611675565b91505092915050565b60008115159050919050565b6117608161174b565b82525050565b600060208201905061177b6000830184611757565b92915050565b60008060408385031215611798576117976115f1565b5b60006117a68582860161163f565b92505060206117b78582860161163f565b9150509250929050565b600080600080608085870312156117db576117da6115f1565b5b60006117e987828801611675565b94505060206117fa87828801611675565b935050604061180b8782880161163f565b925050606061181c8782880161163f565b91505092959194509250565b600060e08201905061183d600083018a6116ca565b61184a60208301896116ca565b61185760408301886116ca565b61186460608301876116ca565b61187160808301866116f4565b61187e60a08301856116f4565b61188b60c08301846116f4565b98975050505050505050565b7f4e487b7100000000000000000000000000000000000000000000000000000000600052601160045260246000fd5b60006118d182611654565b91506118dc83611654565b9250828210156118ef576118ee611897565b5b828203905092915050565b600060408201905061190f60008301856116f4565b61191c60208301846116ca565b9392505050565b61192c8161174b565b811461193757600080fd5b50565b60008151905061194981611923565b92915050565b600060208284031215611965576119646115f1565b5b60006119738482850161193a565b91505092915050565b600060808201905061199160008301876116f4565b61199e60208301866116f4565b6119ab60408301856116ca565b6119b860608301846116ca565b95945050505050565b60006060820190506119d660008301866116f4565b6119e360208301856116f4565b6119f060408301846116ca565b949350505050565b6000611a0382611654565b9150611a0e83611654565b9250827fffffffffffffffffffffffffffffffffffffffffffffffffffffffffffffffff03821115611a4357611a42611897565b5b828201905092915050565b6000611a5982611654565b9150611a6483611654565b9250817fffffffffffffffffffffffffffffffffffffffffffffffffffffffffffffffff0483118215151615611a9d57611a9c611897565b5b828202905092915050565b7f4e487b7100000000000000000000000000000000000000000000000000000000600052601260045260246000fd5b6000611ae282611654565b9150611aed83611654565b925082611afd57611afc611aa8565b5b828204905092915050565b600061010082019050611b1e600083018b6116ca565b611b2b602083018a6116ca565b611b3860408301896116ca565b611b4560608301886116ca565b611b5260808301876116f4565b611b5f60a08301866116f4565b611b6c60c08301856116f4565b611b7960e08301846116f4565b999850505050505050505056fea26469706673582212208c2a47ffb62bf08fa38059fb20e1cff4ec0edb39280bde713ca3c2c193e6f62a64736f6c634300080a0033",
  "immutableReferences": {},
  "source": "pragma solidity 0.8.10;\r\nimport \"./Token.sol\";\r\n\r\n\r\n//  Deposit and Withdraw Funds\r\n//  Manage Orders - Make or Cancel\r\n//  Handle Trades -- charge fees\r\n\r\n\r\n//  TODO:\r\n\r\n//  [x] set the fee account\r\n//  [x] deposit token\r\n//  [x] deposit ether\r\n//  [x] withdraw ether\r\n//  [x] withdraw token\r\n//  [x] create order\r\n//  [x] cancel order\r\n//  [x] fill order\r\n//  []  charge fees\r\n\r\ncontract Exchange {\r\n\r\n    address public transactionFeeAccount; // account receives the exchange fee\r\n\r\n    uint256 public transactionFeePercent;\r\n\r\n    address constant ETHER = address(0); // store ether in blank address\r\n\r\n    uint256 public orderCount;\r\n\r\n    // first address is the address of the token\r\n    // second address is the address of person that has deposited the token\r\n    // unit256 is the amount that has been deposited\r\n\r\n    mapping(address => mapping(address => uint256)) public tokens; // mapping of tokens on the platform\r\n\r\n    mapping(uint256 => _Order) public orders; // store the orders in a map\r\n\r\n    mapping(uint256 => bool) public cancelledOrders; // cancel order\r\n\r\n    mapping(uint256 => bool) public ordersFilled;\r\n\r\n\r\n    //  create a model to store the order to the storage\r\n    struct _Order {\r\n\r\n        uint256 _id;\r\n        uint256 _timeCreated;\r\n        uint256 _amountGive;\r\n        uint256 _amountGet;\r\n        address _tokenGive;\r\n        address _tokenGet;\r\n        address _creator;\r\n    }\r\n\r\n    /*\r\n    \r\n    *   EVENTS\r\n    \r\n     */\r\n\r\n\r\n    // emit a deposit event\r\n    event Deposit(address _token, address _user, uint256 _amount, uint256 _balance);\r\n\r\n\r\n    // emit withdraw event\r\n    event Withdraw(address _token, address _user, uint256 _amount, uint256 _balance);\r\n\r\n    //  emit the Order event\r\n    event Order(uint256 _id, uint256 _timeCreated, uint256 _amountGive, uint256 _amountGet, address _tokenGive, address _tokenGet, address _creator);\r\n\r\n    //  emit event when an order is called\r\n    event OrderCancelled(\r\n        uint256 _id,\r\n        uint256 _amountGive,\r\n        uint256 _amountGet,\r\n        uint256 _timeCancelled,\r\n        address _tokenGive,\r\n        address _tokenGet, \r\n        address _creator    \r\n        );\r\n\r\n    // emit trade event\r\n    event Trade(\r\n        uint256 _id,\r\n        uint256 _amountGive,\r\n        uint256 _amountGet,\r\n        uint256 _timeTraded,\r\n        address _tokenGive,\r\n        address _tokenGet, \r\n        address _creator,\r\n        address _filler\r\n    );\r\n\r\n\r\n    // constructor\r\n    constructor (address _transactionFeeAccount, uint256 _transactionFeePercent) {\r\n\r\n        transactionFeeAccount = _transactionFeeAccount;\r\n        transactionFeePercent = _transactionFeePercent;\r\n\r\n    }\r\n\r\n    fallback() external {\r\n\r\n    }\r\n\r\n    function depositToken(address _token, uint _amount) public {\r\n\r\n        // disallow ether deposits through this address\r\n        require(_token != ETHER);\r\n\r\n        //  which token ?\r\n        //  how much ?\r\n        //  manage deposit\r\n        \r\n        //  send tokens to this contract\r\n        require(Token(_token).transferFrom(msg.sender, address(this), _amount));\r\n\r\n\r\n        // manage deposit\r\n        tokens[_token][msg.sender] += _amount;\r\n\r\n        emit Deposit(_token, msg.sender, _amount, tokens[_token][msg.sender]);\r\n        \r\n    }\r\n\r\n\r\n    function depositEther() payable public {\r\n        tokens[ETHER][msg.sender] += msg.value; \r\n\r\n        // emit ether deposit\r\n        emit Deposit(ETHER, msg.sender, msg.value, tokens[ETHER][msg.sender]);\r\n    }\r\n\r\n    function withdrawEther(uint _amount) public {\r\n\r\n        // the amount to be withdrawn should be less or equal to the deposited amount\r\n        require(_amount <= tokens[ETHER][msg.sender]);\r\n        // reduce the value to be withdrawn from the ether tokens map\r\n        tokens[ETHER][msg.sender] -= _amount;\r\n\r\n        payable(msg.sender).transfer(_amount);\r\n        \r\n\r\n        //  emit the withdraw event\r\n        emit Withdraw(ETHER, msg.sender, _amount, tokens[ETHER][msg.sender]);\r\n        \r\n    }\r\n\r\n    function withdrawTokens(address _token, uint _amount) public {\r\n        //  the token to be withdrawn must be less or equal to the token deposited\r\n        //  the address to send the token must not be an ether address\r\n        //  send the token\r\n        //  emit the withdraw event\r\n\r\n        require(msg.sender != address(0));\r\n        require(_token != ETHER);\r\n        require(_amount <= tokens[_token][msg.sender]);\r\n        tokens[_token][msg.sender] -= _amount;\r\n        Token(_token).transfer(msg.sender, _amount);\r\n        emit Withdraw(_token, msg.sender, _amount, tokens[_token][msg.sender]);\r\n    }\r\n\r\n    function balanceOf(address _token, address _user) public view returns (uint) {\r\n        return tokens[_token][_user];\r\n    }\r\n\r\n\r\n    function createOrder(uint256 _amountGive, uint256 _amountGet, address _tokenGive, address _tokenGet) public {\r\n\r\n        orderCount = orderCount + 1;\r\n\r\n        //  instantiate the order\r\n        orders[orderCount] = _Order(orderCount, block.timestamp, _amountGive, _amountGet, _tokenGive, _tokenGet, msg.sender);\r\n\r\n        //  emit the Order event\r\n        emit Order(orderCount, block.timestamp, _amountGive, _amountGet, _tokenGive, _tokenGet, msg.sender);\r\n\r\n    }\r\n\r\n\r\n    function cancelOrders(uint256 _id) public {\r\n\r\n        //  the order to be cancelled is a valid order\r\n\r\n\r\n        // fetch  the order from the storage which is a map\r\n\r\n        _Order storage _order = orders[_id]; // solidity won't throw an error for an invalid key. For that, we  will require that the key is valid\r\n\r\n        require(_order._id == _id);\r\n        require(_order._creator == msg.sender);\r\n        cancelledOrders[_id] = true;\r\n\r\n        // emit OrderCancelled event\r\n        emit OrderCancelled(_id, _order._amountGive, _order._amountGet, block.timestamp, _order._tokenGive, _order._tokenGet, _order._creator);\r\n\r\n    }\r\n\r\n    function fillOrder(uint256 _id) public {\r\n        // fetch the order\r\n        _Order storage _order = orders[_id];\r\n\r\n        // require that the id is valid\r\n        require(_order._id == _id);\r\n\r\n        // require that the order is not cancelled\r\n        require(!cancelledOrders[_id]);\r\n\r\n        //  require that the order has not been filled\r\n        require(!ordersFilled[_id]);\r\n\r\n        //  require that the order is not filled by the creator of the contract\r\n        require(_order._creator != msg.sender);\r\n\r\n        //  execute trade\r\n        _trade(_order._id, _order._creator, _order._tokenGet, _order._tokenGive, _order._amountGet, _order._amountGive);\r\n\r\n\r\n        // execute the trade\r\n        // charge fees\r\n        // mark the orders as filled\r\n        // emit the trade event\r\n\r\n\r\n    }\r\n\r\n    function _trade(uint256 _id, address _creator, address _tokenGet, address _tokenGive, uint256 _amountGet, uint256 _amountGive) internal {\r\n        // swap the token\r\n\r\n        /*\r\n        \r\n        *   withdraw the token to be given out by the creator from his account\r\n        *   add the token to the balance of the filler\r\n\r\n\r\n        *   in exchange for that, withdraw the token to be gotten by the creator from the fillers account\r\n        *   add it to the balance of the order creator\r\n\r\n        *   fee will be paid by the person that fills the order\r\n        \r\n         */\r\n\r\n         uint256 _transactionFee = (_amountGive * transactionFeePercent) / 100;\r\n\r\n\r\n        //  update balances for the token to be released by the creator of the order\r\n        tokens[_tokenGive][_creator] -= _amountGive;\r\n        tokens[_tokenGive][msg.sender] += _amountGive;\r\n\r\n\r\n        // update balances for the token to be received by the order creator\r\n        tokens[_tokenGet][_creator] += _amountGet;\r\n        tokens[_tokenGet][msg.sender] -= _amountGet + _transactionFee;\r\n\r\n        //  send the transaction fee to the address that accepts transaction fee\r\n        tokens[_tokenGet][transactionFeeAccount] += _transactionFee;\r\n\r\n        emit Trade(_id, _amountGive, _amountGet, block.timestamp, _tokenGive, _tokenGet, _creator, msg.sender);\r\n\r\n        \r\n\r\n\r\n\r\n    }\r\n\r\n   \r\n}\r\n\r\n",
  "sourcePath": "C:\\Users\\Uju Nobei\\Documents\\Israel Linux\\blockchain\\my dapp uni bootcamp code\\dex\\src\\contracts\\Exchange.sol",
  "compiler": {
    "name": "solc",
    "version": "0.8.10+commit.fc410830.Emscripten.clang"
  },
  "schemaVersion": "3.4.3",
  "updatedAt": "2021-12-27T19:11:43.059Z",
  "networkType": "ethereum",
  "devdoc": {
    "kind": "dev",
    "methods": {},
    "version": 1
  },
  "userdoc": {
    "kind": "user",
    "methods": {},
    "version": 1
  }
}